:100000000C9461000C9400080C947E000C947E000B
:100010000C947E000C947E000C947E000C947E0068
:100020000C947E000C947E000C947E000C947E0058
:100030000C947E000C947E000C947E000C947E0048
:100040000C947E000C947E000C947E000C947E0038
:100050000C947E000C94AE000C947E000C947E00F8
:100060000C947E000C947E0008000000BE9224498F
:10007000123EABAAAA2ABECDCCCC4C3E00000080DA
:10008000BEABAAAAAA3E00000000BF000000803F4D
:100090000000000000084178D3BB4387D1133D190D
:1000A0000E3CC3BD4282AD2B3E68EC8276BED98F3A
:1000B000E1A93E4C80EFFFBE01C4FF7F3F0000007E
:1000C000000011241FBECFEFD8E0DEBFCDBF11E08E
:1000D000A0E0B1E0E6E2FAE102C005900D92A63898
:1000E000B107D9F711E0A6E8B1E001C01D92A03A2E
:1000F000B107E1F70E94AB080C94480A0C94000089
:100100009C016AE070E00E94C10CFB0184E0EE0FEC
:10011000FF1F8A95E1F7EF60C9016AE070E00E9475
:10012000C10C806FE823F923CF0108959C01E4E01E
:1001300035952795EA95E1F72F703070A90173E0A6
:10014000440F551F7A95E1F7220F331F420F531FBB
:100150008F709070480F591FCA0108951F920F9217
:100160000FB60F9211242F933F938F939F93EF938A
:10017000FF932091780030917900809186019091D1
:100180008701820F931F9093870180938601EAE78E
:10019000F0E0808180618083FF91EF919F918F914A
:1001A0003F912F910F900FBE0F901F9018954F9277
:1001B0005F926F927F928F929F92AF92BF92CF92F7
:1001C000DF92EF92FF920F931F935C014B013A0174
:1001D000290180ED0E941E0980E00E944409C501AA
:1001E0000E9480000E9444090E94440A80ED0E94FF
:1001F0001E0981E00E944409C4010E9480000E94FF
:1002000044090E94440A80ED0E941E0982E00E9477
:100210004409C3010E9480000E9444090E94440ACC
:1002200080ED0E941E0983E00E944409C2010E94E1
:1002300080000E9444090E94440A80ED0E941E0929
:1002400084E00E944409C8010E9480000E94440981
:100250000E94440A80ED0E941E0985E00E94440924
:10026000C7010E9480000E9444090E94440A80ED58
:100270000E941E0986E00E944409C6010E94800077
:100280000E9444090E94440A1F910F91FF90EF9031
:10029000DF90CF90BF90AF909F908F907F906F90A6
:1002A0005F904F90089580ED0E941E098FE00E949C
:1002B000440980E00E9444090E94440A08950F9373
:1002C0001F9380ED0E941E098EE00E9444098FE179
:1002D0000E9444090E94440A00E61AEEC8010197F0
:1002E000F1F780ED0E941E098DE00E9444098FEF16
:1002F0000E9444090E94440AC8010197F1F780ED69
:100300000E941E098AE00E9444098FEF0E9444095E
:100310000E94440AC8010197F1F780ED0E941E096E
:100320008FE00E94440980E00E9444090E94440A30
:10033000C8010197F1F71F910F910895CF92DF92B5
:10034000EF92FF920F931F938C018EE70E941E097C
:10035000B0EFEB2EF12CE022F12289E090E0E82AC8
:10036000F92A8E2D0E944409A8EBCA2EABE0DA2EA2
:10037000C6010197F1F78E2D84600E944409C601E1
:100380000197F1F78E2D0E944409C6010197F1F7FC
:10039000F4E0000F111FFA95E1F710700960802F4B
:1003A0000E944409C6010197F1F7802F84600E94E2
:1003B0004409C6010197F1F7802F0E944409C60144
:1003C0000197F1F70E94440A1F910F91FF90EF905F
:1003D000DF90CF9008959F92AF92BF92CF92DF921D
:1003E000EF92FF920F931F93DF93CF93CDB7DEB7BA
:1003F0002A970FB6F894DEBF0FBECDBF7B018C01EC
:10040000942EFE0131968AE0DF011D928A95E9F76C
:100410005F01CC24DD241BC0C801B7012AE030E015
:1004200040E050E00E94D40CF501619371935F01AC
:10043000C801B7012AE030E040E050E00E94D40C4F
:10044000C901DA017C018D010894C11CD11CE114A1
:10045000F1040105110501F7860101501040FFEF7D
:100460000F3F1F0711F400E010E0992061F4000F26
:10047000111F7E010894E11CF11CE00EF11E8E019B
:100480000150104005C0892D90E00E949E01EFCFE1
:10049000D7018D919C918430910581F18530910532
:1004A0007CF48130910509F1823091051CF4892B8F
:1004B000C9F037C082309105D9F0039791F51BC080
:1004C0008730910521F18830910534F4853091050C
:1004D000C1F0069731F518C088309105D9F0099719
:1004E00001F51BC080E390E01AC081E390E017C0E3
:1004F00082E390E014C083E390E011C084E390E0D5
:100500000EC085E390E00BC086E390E008C087E36F
:1005100090E005C088E390E002C089E390E00E948B
:100520009E01EEEFFFEFEE0EFF1EE016F10609F062
:10053000AFCF2A960FB6F894DEBF0FBECDBFCF91D6
:10054000DF911F910F91FF90EF90DF90CF90BF90C0
:10055000AF909F9008958F929F92AF92BF92CF924B
:10056000DF92EF92FF920F931F93DF93CF93CDB75C
:10057000DEB72A970FB6F894DEBF0FBECDBF7B0162
:100580008C014A0183E6E816F1040105110518F40F
:1005900021E0822E912C5E010894A11CB11CCC2478
:1005A000DD241BC0C801B7012AE030E040E050E084
:1005B0000E94D40CF501619371935F01C801B701EA
:1005C0002AE030E040E050E00E94D40CC901DA019A
:1005D0007C018D010894C11CD11CE114F1040105BA
:1005E000110501F70894C108D108CC0CDD1C8E015F
:1005F0000F5F1F4F0C0D1D1D7E010894E108F108CF
:1006000055C08114910421F48EE290E00E949E0175
:10061000F801808191818430910581F185309105C7
:100620007CF48130910509F1823091051CF4892B0D
:10063000C9F037C082309105D9F0039791F51BC0FE
:100640008730910521F18830910534F4853091058A
:10065000C1F0069731F518C088309105D9F0099797
:1006600001F51BC080E390E01AC081E390E017C061
:1006700082E390E014C083E390E011C084E390E053
:100680000EC085E390E00BC086E390E008C087E3EE
:1006900090E005C088E390E002C089E390E00E940A
:1006A0009E01089481089108025010400E151F0504
:1006B00009F0A7CF2A960FB6F894DEBF0FBECDBFC4
:1006C000CF91DF911F910F91FF90EF90DF90CF902E
:1006D000BF90AF909F908F900895CF92DF92EF924E
:1006E000FF920F931F93082F8EE70E941E0910E0C0
:1006F00050EFE52EF12CE022F12288E090E0E82A8C
:10070000F92A8E2D0E94440948EBC42E4BE0D42ECA
:10071000C6010197F1F78E2D84600E944409C6013D
:100720000197F1F78E2D0E944409C6010197F1F758
:1007300034E0000F111F3A95E1F710700860802F28
:100740000E944409C6010197F1F7802F84600E943E
:100750004409C6010197F1F7802F0E944409C601A0
:100760000197F1F70E94440A1F910F91FF90EF90BB
:10077000DF90CF9008950F931F93CF93DF938C0159
:10078000C0E0D0E00AC090E00E949E01CF30D105C9
:1007900019F480EC0E946D032196F801EC0FFD1F07
:1007A0008081882381F7DF91CF911F910F91089568
:1007B00081E00E946D0386E00E946D038CE00E9440
:1007C0006D03089520E030E04CE251E080917A0022
:1007D000806480937A008CED95E0FA013197F1F70F
:1007E0000197D9F72F5F3F4F2530310579F7809179
:1007F00086019091870165E070E00E94AD0C84E66F
:1008000090E09C01629FC001639F900D729F900DCC
:1008100011246DEC70E00E94AD0C9B017093870178
:100820006093860140E050E060E47BE48CE490E07B
:100830000E94F60C20513742B90180E090E00E94FE
:10084000440B20E030E44CE156E40E94B00A0E94E0
:10085000D70B20E030EE46E755E40E94B00A2CEAC0
:100860003BE84BE55BE30E944C0A9B01AC0160E076
:1008700070E080E89FE30E94B00A23E333E948E890
:1008800053E40E944B0A609388017093890180931E
:100890008A0190938B010E94D80380E091E00E942E
:1008A000BB03609188017091890180918A019091C8
:1008B0008B0120E030E040E251E40E94170C0E94DE
:1008C000180B42E050E00E94AB0208950E94D8034A
:1008D00080918C0190918D01892B19F484E091E035
:1008E00002C08DE091E00E94BB0380918E01909147
:1008F0008F01892B19F485E191E002C08DE191E02F
:100900000E94BB0380EC0E946D0380919001909146
:100910009101892B19F484E291E002C08EE291E00A
:100920000E94BB038091920190919301892B19F44D
:1009300088E391E002C080E491E00E94BB03089547
:10094000EF92FF920F931F938EE70E941E0988E398
:100950000E94440908EB1BE0C8010197F1F78CE302
:100960000E944409C8010197F1F788E30E944409F5
:1009700080E69AEE0197F1F78CE30E944409C801E2
:100980000197F1F788E30E94440960E5E62E66E4EA
:10099000F62EC7010197F1F78CE30E944409C801C4
:1009A0000197F1F788E30E944409C8010197F1F724
:1009B00088E20E944409C8010197F1F78CE20E9485
:1009C0004409C8010197F1F788E20E944409C70170
:1009D0000197F1F70E94440A80E797E10197F1F748
:1009E00088E20E946D031F910F91FF90EF90089590
:1009F0000F931F93CF93DF930E94A00400E315E7AA
:100A0000C8010197F1F70E94D803C8010197F1F7D7
:100A100087E491E00E94BB0380EC0E946D03C0E07C
:100A2000D0E00CE211E08EE290E00E949E0180EAAC
:100A30009FE0F8013197F1F70197D9F72196C5307A
:100A4000D10589F780E090E00E94BB03DF91CF9150
:100A50001F910F91089580ED0E941E098FE00E9462
:100A6000440981ED0E941E090E94600990E00895EA
:100A700080ED0E941E0982E10E94440981ED0E94DE
:100A80001E090E94600990E076E0959587957A9519
:100A9000E1F7009719F420E030E00DC081309105B6
:100AA00019F429E130E007C0029719F02BE430E097
:100AB00002C022E330E0C901089580ED0E941E09C2
:100AC00081E10E94440981ED0E941E090E94600993
:100AD00090E00895AF92BF92CF92DF92EF92FF9293
:100AE0000F931F930E945D058C010E9438055C01E5
:100AF00084E690E0089F7001099FF00C189FF00CAD
:100B0000112487E591E00E94BB03EA0CFB1C00273F
:100B1000F7FC0095102FC801B70142E050E00E9499
:100B2000AB02CC24B7FCC094DC2CC601B50140E07C
:100B300050E00E94AB021F910F91FF90EF90DF9069
:100B4000CF90BF90AF90089580ED0E941E0986E07F
:100B50000E94440981ED0E941E090E94600990E0F4
:100B60009C01A4E036952795AA95E1F7A901F3E049
:100B7000440F551FFA95E1F7220F331F420F531F01
:100B80008F709070480F591FCA01089580ED0E9420
:100B90001E0985E00E94440981ED0E941E090E9401
:100BA000600990E09C0174E0369527957A95E1F70D
:100BB000A90163E0440F551F6A95E1F7220F331F27
:100BC000420F531F8F709070480F591FCA0108952C
:100BD00080ED0E941E0984E00E94440981ED0E947C
:100BE0001E090E94600990E09C01A4E036952795BB
:100BF000AA95E1F7A901F3E0440F551FFA95E1F733
:100C0000220F331F420F531F8F709070480F591FD0
:100C1000CA01089580ED0E941E0983E00E944409E4
:100C200081ED0E941E090E94600990E09C0174E021
:100C3000369527957A95E1F7A90163E0440F551F92
:100C40006A95E1F7220F331F420F531F8F70907088
:100C5000480F591FCA01089580ED0E941E0982E0C5
:100C60000E94440981ED0E941E090E94600990E0E3
:100C70009C012F733070A4E036952795AA95E1F773
:100C8000A901F3E0440F551FFA95E1F7220F331F36
:100C9000420F531F8F709070480F591FCA0108955B
:100CA00080ED0E941E0981E00E94440981ED0E94AE
:100CB0001E090E94600990E09C0174E0369527951A
:100CC0007A95E1F7A90163E0440F551F6A95E1F7B2
:100CD000220F331F420F531F8F709070480F591F00
:100CE000CA010895FF920F931F93CF93DF930E9441
:100CF00050068C010E942C0660E00E3111050CF0AC
:100D000061E020E0863091050CF021E0262330E000
:100D100040E050E08730910514F041E050E0242B92
:100D2000352B232B19F0C1E1D0E002C0C6E0D0E0A2
:100D300020E0813191050CF021E0262330E040E0F5
:100D400050E08231910514F041E050E0242B352B26
:100D5000232B11F0C6E1D0E020E0863191050CF0A4
:100D600021E06223262F30E040E050E0479714F066
:100D700041E050E0242B352B232B11F0C6E0D0E0CE
:100D80008EE190E00E948000182FCE010E9480002A
:100D9000082F80E090E00E948000F82E80ED0E94F5
:100DA0001E0988E00E944409812F8F770E94440920
:100DB0000E94440A80ED0E941E0989E00E944409B5
:100DC000802F8F730E9444090E94440A80ED0E9484
:100DD0001E0987E00E9444098F2D8F770E944409E5
:100DE0000E94440ADF91CF911F910F91FF900895C7
:100DF0000F931F93CF93DF930E9450068C010E94A4
:100E00002C060F30110524F4EC018FE090E00CC0AB
:100E10008731910529F480E090E0C0E0D0E004C083
:100E2000EC01219680E090E00E948000182FCE0116
:100E30000E948000082F80ED0E941E098BE00E9416
:100E40004409812F8F770E9444090E94440A80ED53
:100E50000E941E098CE00E944409802F8F730E941B
:100E600044090E94440ADF91CF911F910F91089588
:100E700080ED0E941E0980E00E94440981ED0E94DD
:100E80001E090E94600990E09C01A4E03695279518
:100E9000AA95E1F7A901F3E0440F551FFA95E1F790
:100EA000220F331F420F531F8F709070480F591F2E
:100EB000CA0108950E942C06909397018093960191
:100EC0000E94500690939901809398010E943807E0
:100ED00090939D0180939C010E94E80590939F014F
:100EE00080939E010E94C605909395018093940182
:100EF0000E94A40590939B0180939A0108950E94FB
:100F00005A07A0919801B091990160919601709152
:100F1000970180E06630710509F481E090E061316D
:100F2000710509F491E0892B282F30E040E050E072
:100F3000CD014E974D9710F441E050E02423352326
:100F4000232B69F05E9A80E090E020E335E7F90119
:100F50003197F1F7019641E08C329407C1F75E9822
:100F6000109291011092900140E05E970CF041E0E8
:100F700080E0613171050CF081E0842390E020E095
:100F800030E06231710514F021E030E0822B932BC8
:100F9000892B39F081E090E0909393018093920146
:100FA0005F9A80E0663171050CF081E04823842F60
:100FB00090E020E030E06731710514F021E030E08E
:100FC000822B932B892B29F010929301109292017E
:100FD0005F9808950E945A07809198019091990115
:100FE0000F9744F481E090E090938D0180938C0101
:100FF0005D9A089510928D0110928C015D9808956C
:101000001F920F920FB60F9211242F933F934F937D
:101010005F936F937F938F939F93AF93BF93EF9360
:10102000FF930E94D8038CE591E00E94BB0380EC03
:101030000E946D030E942B0581FF1DC00E94530179
:101040000E94F8068AE691E00E94BB0320E030E0AF
:101050004CE251E00AC0FA013197F1F70197D9F754
:101060002F5F3F4F2431310519F088EE93E0F3CF25
:101070000E94EA071EC080FF1CC00E9453010E940C
:10108000720687E791E00E94BB0320E030E04CE26B
:1010900051E00AC0FA013197F1F70197D9F72F5FB4
:1010A0003F4F2431310519F088EE93E0F3CF0E94D1
:1010B0007F07FF91EF91BF91AF919F918F917F91AA
:1010C0006F915F914F913F912F910F900FBE0F90B5
:1010D0001F9018950E945A0780EC0E946D03609142
:1010E000960170919701882777FD8095982F40E0B1
:1010F0000E94EB016091980170919901882777FD1A
:101100008095982F4AE30E94EB0182E891E00E94CB
:10111000BB0360919E0170919F01882777FD8095A8
:10112000982F40E00E94EB0160919401709195012D
:10113000882777FD8095982F4FE20E94EB01609100
:101140009A0170919B01882777FD8095982F4FE237
:101150000E94EB0108950F931F93CF93DF9388EEC6
:1011600093E02CE231E0F9013197F1F70197D9F7DB
:101170008FB780688FBF0E941A0900E315E7C80186
:101180000197F1F78AB1806E8AB98BB18F718BB9F3
:101190000E94F804C8010197F1F780917C00109239
:1011A0007C008FE880937A0080917E008E7F809310
:1011B0007E00C8010197F1F70E945A070E945F0163
:1011C0000E94EA070E94F8060E947F070E947206AA
:1011D00081E0809369008DBBCCE2D1E01092870161
:1011E000109286010E94E2030E946A050E946A082A
:1011F00020E030E00AC0FE013197F1F70197D9F7FE
:101200002F5F3F4F2634310519F088EE93E0F3CF7E
:101210000E94660420E030E00AC0FE013197F1F739
:101220000197D9F72F5F3F4F26343105B9F288EE89
:1012300093E0F3CF84E38093B8000895982F109241
:10124000BC0084EA8093BC008091BC0087FFFCCF87
:101250008091B900887F883011F081E008959093E3
:10126000BB0084E88093BC008091BC0087FFFCCF6A
:101270009091B900987F983111F480E0089580E052
:10128000903409F081E008958093BB0084E8809356
:10129000BC008091BC0087FFFCCF8091B90090E03A
:1012A000887F883209F091E0892F089584EC80933B
:1012B000BC008091BC0087FFFCCF8091BB000895EB
:1012C00084E88093BC008091BC0087FFFCCF8091B4
:1012D000BB000895EF92FF920F931F93CF93DF937C
:1012E0007B018A010E941E098823A1F4C0E0D0E09E
:1012F00009C0F701EC0FFD1F80810E94440988237B
:1013000049F42196C017D107A0F384E98093BC006B
:1013100080E001C081E0DF91CF911F910F91FF909C
:10132000EF9008950F931F93CF93DF93EB018A0102
:1013300081600E941E09882311F081E029C020E00D
:1013400030E0A8014150504094EC0EC09093BC0096
:101350008091BC0087FFFCCF8091BB00FE01E20FB3
:10136000F31F80832F5F3F4F2417350778F384E8FE
:101370008093BC008091BC0087FFFCCF8091BB00B4
:10138000C00FD11F2197888384E98093BC0080E03F
:10139000DF91CF911F910F910895CF92DF92EF923D
:1013A000FF921F93CF93DF93162F6A0179010E945A
:1013B0001E098823B9F4812F0E944409C0E0D0E0BF
:1013C00009C0F601EC0FFD1F80810E9444098823AB
:1013D00049F42196CE15DF05A0F384E98093BC0083
:1013E00080E001C081E0DF91CF911F91FF90EF90ED
:1013F000DF90CF900895EF92FF920F931F93CF93BA
:10140000DF93182F062FEA0179010E941E09882315
:1014100099F5802F0E944409812F81600E941E0946
:10142000882351F520E030E0A7014150504094EC72
:101430000EC09093BC008091BC0087FFFCCF8091D0
:10144000BB00FE01E20FF31F80832F5F3F4F241785
:10145000350778F384E88093BC008091BC0087FF57
:10146000FCCF8091BB00CE0DDF1D2197888384E9DE
:101470008093BC0080E001C081E0DF91CF911F919B
:101480000F91FF90EF90089584E98093BC00089538
:10149000F8940C94110D5058BB27AA270ED048C1C0
:1014A00039D130F03ED120F031F49F3F11F41EF4D9
:1014B0002EC10EF4E095E7FB24C1E92F4AD180F359
:1014C000BA17620773078407950718F071F49EF541
:1014D00062C10EF4E0950B2EBA2FA02D0B01B901BD
:1014E00090010C01CA01A0011124FF27591B99F09A
:1014F000593F50F4503E68F11A16F040A22F232FA6
:10150000342F4427585FF3CF469537952795A795F5
:10151000F0405395C9F77EF41F16BA0B620B730B9C
:10152000840BBAF09150A1F0FF0FBB1F661F771F0D
:10153000881FC2F70EC0BA0F621F731F841F48F4C2
:10154000879577956795B795F7959E3F08F0B3CF48
:101550009395880F08F09927EE0F97958795089532
:101560000CD0E6C0DED040F0D5D030F021F45F3FA3
:1015700019F0C7C0511110C1CAC0EBD098F399231C
:10158000C9F35523B1F3951B550BBB27AA27621747
:101590007307840738F09F5F5F4F220F331F441F8C
:1015A000AA1FA9F333D00E2E3AF0E0E830D09150C4
:1015B0005040E695001CCAF729D0FE2F27D0660FB1
:1015C000771F881FBB1F261737074807AB07B0E8F0
:1015D00009F0BB0B802DBF01FF2793585F4F2AF006
:1015E0009E3F510568F08DC0D7C05F3FECF3983E39
:1015F000DCF3869577956795B795F7959F5FC9F763
:10160000880F911D9695879597F90895E1E0660FEB
:10161000771F881FBB1F621773078407BA0720F064
:10162000621B730B840BBA0BEE1F88F7E0950895CD
:1016300098D088F09F5790F0B92F9927B751A0F014
:10164000D1F0660F771F881F991F1AF0BA95C9F756
:1016500012C0B13081F09FD0B1E008959CC0672FD7
:10166000782F8827B85F39F0B93FCCF38695779506
:101670006795B395D9F73EF49095809570956195EF
:101680007F4F8F4F9F4F0895E89409C097FB3EF41A
:1016900090958095709561957F4F8F4F9F4F9923BF
:1016A000A9F0F92F96E9BB279395F695879577953D
:1016B0006795B795F111F8CFFAF4BB0F11F460FFFD
:1016C0001BC06F5F7F4F8F4F9F4F16C0882311F055
:1016D00096E911C0772321F09EE8872F762F05C069
:1016E000662371F096E8862F70E060E02AF09A9504
:1016F000660F771F881FDAF7880F9695879597F9F9
:10170000089597F99F6780E870E060E008959FEF83
:1017100080EC089500240A94161617061806090688
:10172000089500240A941216130614060506089557
:10173000092E0394000C11F4882352F0BB0F40F4DF
:10174000BF2B11F460FF04C06F5F7F4F8F4F9F4F1F
:10175000089557FD9058440F551F59F05F3F71F0A1
:101760004795880F97FB991F61F09F3F79F0879508
:101770000895121613061406551FF2CF4695F1DF91
:1017800008C0161617061806991FF1CF8695710521
:10179000610508940895E894BB2766277727CB0155
:1017A00097F908950EF0A6C0B2CF6894AACFD9DFFA
:1017B000C8F39923D1F3C6F3DF93CF931F930F930D
:1017C000FF92C92FDD2788232AF02197660F771F04
:1017D000881FDAF720E030E040E85FEB9FE38839CC
:1017E00020F0803E30F021968F7756DEE8E6F0E07C
:1017F00003C052DEE5E9F0E08BD08B01BE01EC01C5
:10180000FB2E6F5771097595771F880B990B3EDF7B
:1018100028E132E741E35FE316D0AF2D9801AE0136
:10182000FF900F911F91CF91DF9147DE81CF0BD0B9
:101830007FCF70DF28F075DF18F0952309F061CFB6
:1018400066CF1124A9CF85DFA0F3959FD1F3950F23
:1018500050E0551F629FF001729FBB27F00DB11D34
:10186000639FAA27F00DB11DAA1F649F6627B00DC4
:10187000A11D661F829F2227B00DA11D621F739FAD
:10188000B00DA11D621F839FA00D611D221F749FBB
:101890003327A00D611D231F849F600D211D822F02
:1018A000762F6A2F11249F5750408AF0E1F0882349
:1018B0004AF0EE0FFF1FBB1F661F771F881F915056
:1018C0005040A9F79E3F510570F01BCF65CF5F3F99
:1018D000ECF3983EDCF3869577956795B795F79589
:1018E000E7959F5FC1F7FE2B880F911D9695879511
:1018F00097F908959F3F31F0915020F4879577959F
:101900006795B795880F911D9695879597F90895D6
:10191000DF93CF931F930F93FF92EF92DF927B01A0
:101920008C01689405C0DA2EEF018DDFFE01E8948A
:10193000A5912591359145915591AEF3EF01BDDD0E
:10194000FE019701A801DA9479F7DF90EF90FF90FC
:101950000F911F91CF91DF910895AA1BBB1B51E1FD
:1019600007C0AA1FBB1FA617B70710F0A61BB70B0F
:10197000881F991F5A95A9F780959095BC01CD01B4
:10198000089597FB092E07260AD077FD04D0E5DFDE
:1019900006D000201AF4709561957F4F0895F6F7F0
:1019A000909581959F4F0895A1E21A2EAA1BBB1B0B
:1019B000FD010DC0AA1FBB1FEE1FFF1FA217B3071B
:1019C000E407F50720F0A21BB30BE40BF50B661F31
:1019D000771F881F991F1A9469F7609570958095F5
:1019E00090959B01AC01BD01CF01089597FB092E95
:1019F00005260ED057FD04D0D7DF0AD0001C38F4DE
:101A000050954095309521953F4F4F4F5F4F08952A
:101A1000F6F790958095709561957F4F8F4F9F4F0A
:061A20000895F894FFCFC9
:101A260057543D004D54523A4F464620004D5452AD
:101A36003A4F4E20004854523A4F464600485452B8
:101A46003A4F4E00464F4F443A4F46462000464FC7
:101A5600444F443A4F4E20004C47543A4F464600B6
:101A66004C47543A4F4E006B72697A5820626F6F3A
:101A76007420696E6974002041543D00494E5452E9
:101A8600505420444554454354004F585947454EF9
:101A960020414C41524D00464F4F4420414C41524B
:061AA6004D00205F20004E
:00000001FF
